{
  "contractName": "Cplayer",
  "abi": [
    {
      "constant": true,
      "inputs": [
        {
          "name": "",
          "type": "address"
        }
      ],
      "name": "players",
      "outputs": [
        {
          "name": "name",
          "type": "string"
        },
        {
          "name": "PhoneNumber",
          "type": "uint256"
        },
        {
          "name": "Paddress",
          "type": "address"
        },
        {
          "name": "id",
          "type": "uint256"
        }
      ],
      "payable": false,
      "stateMutability": "view",
      "type": "function"
    },
    {
      "constant": true,
      "inputs": [],
      "name": "admin",
      "outputs": [
        {
          "name": "",
          "type": "address"
        }
      ],
      "payable": false,
      "stateMutability": "view",
      "type": "function"
    },
    {
      "inputs": [],
      "payable": false,
      "stateMutability": "nonpayable",
      "type": "constructor"
    },
    {
      "constant": false,
      "inputs": [
        {
          "name": "_name",
          "type": "string"
        },
        {
          "name": "_phonenumber",
          "type": "uint256"
        }
      ],
      "name": "AddPlayer",
      "outputs": [
        {
          "name": "",
          "type": "bool"
        }
      ],
      "payable": false,
      "stateMutability": "nonpayable",
      "type": "function"
    },
    {
      "constant": false,
      "inputs": [
        {
          "name": "_address",
          "type": "address"
        }
      ],
      "name": "RemovePlayer",
      "outputs": [
        {
          "name": "",
          "type": "bool"
        }
      ],
      "payable": false,
      "stateMutability": "nonpayable",
      "type": "function"
    },
    {
      "constant": false,
      "inputs": [
        {
          "name": "_name",
          "type": "string"
        },
        {
          "name": "_phonenumber",
          "type": "uint256"
        },
        {
          "name": "_address",
          "type": "address"
        },
        {
          "name": "_id",
          "type": "uint256"
        }
      ],
      "name": "EditPlayer",
      "outputs": [
        {
          "name": "",
          "type": "bool"
        }
      ],
      "payable": false,
      "stateMutability": "nonpayable",
      "type": "function"
    },
    {
      "constant": false,
      "inputs": [
        {
          "name": "_address",
          "type": "address"
        },
        {
          "name": "_id",
          "type": "uint256"
        }
      ],
      "name": "EditPlayer",
      "outputs": [
        {
          "name": "",
          "type": "bool"
        }
      ],
      "payable": false,
      "stateMutability": "nonpayable",
      "type": "function"
    },
    {
      "constant": true,
      "inputs": [
        {
          "name": "_address",
          "type": "address"
        }
      ],
      "name": "findplayer",
      "outputs": [
        {
          "name": "",
          "type": "string"
        },
        {
          "name": "",
          "type": "uint256"
        },
        {
          "name": "",
          "type": "address"
        }
      ],
      "payable": false,
      "stateMutability": "view",
      "type": "function"
    },
    {
      "constant": true,
      "inputs": [
        {
          "name": "_address",
          "type": "address"
        }
      ],
      "name": "exist",
      "outputs": [
        {
          "name": "",
          "type": "bool"
        }
      ],
      "payable": false,
      "stateMutability": "view",
      "type": "function"
    },
    {
      "constant": true,
      "inputs": [
        {
          "name": "_adress",
          "type": "address"
        }
      ],
      "name": "getplayer",
      "outputs": [
        {
          "components": [
            {
              "name": "name",
              "type": "string"
            },
            {
              "name": "PhoneNumber",
              "type": "uint256"
            },
            {
              "name": "Paddress",
              "type": "address"
            },
            {
              "name": "id",
              "type": "uint256"
            }
          ],
          "name": "",
          "type": "tuple"
        }
      ],
      "payable": false,
      "stateMutability": "view",
      "type": "function"
    }
  ],
  "bytecode": "0x608060405234801561001057600080fd5b5060008054600160a060020a03191633179055610b64806100326000396000f3006080604052600436106100985763ffffffff7c01000000000000000000000000000000000000000000000000000000006000350416630d1da1af811461009d57806334aeefd5146100d35780634dfefc4b146100f35780635c81e1c5146101135780636247391d1461014257806393a2162714610162578063c87573a21461018f578063e2eb41ff146101af578063f851a440146101df575b600080fd5b3480156100a957600080fd5b506100bd6100b8366004610877565b610201565b6040516100ca91906109e4565b60405180910390f35b3480156100df57600080fd5b506100bd6100ee36600461081f565b610264565b3480156100ff57600080fd5b506100bd61010e36600461081f565b6102ef565b34801561011f57600080fd5b5061013361012e36600461081f565b61031f565b6040516100ca939291906109f2565b34801561014e57600080fd5b506100bd61015d3660046108ad565b6103f2565b34801561016e57600080fd5b5061018261017d36600461081f565b610471565b6040516100ca9190610a62565b34801561019b57600080fd5b506100bd6101aa36600461083d565b610574565b3480156101bb57600080fd5b506101cf6101ca36600461081f565b6105a8565b6040516100ca9493929190610a1f565b3480156101eb57600080fd5b506101f461066f565b6040516100ca91906109d6565b336000908152600160209081526040822084516102209286019061068b565b505033600081815260016020819052604090912060028101805473ffffffffffffffffffffffffffffffffffffffff19169093179092559081018290555b92915050565b6000805473ffffffffffffffffffffffffffffffffffffffff16331461028957600080fd5b73ffffffffffffffffffffffffffffffffffffffff82166000908152600160205260408120906102b98282610709565b506000600182810182905560028301805473ffffffffffffffffffffffffffffffffffffffff1916905560039092015592915050565b73ffffffffffffffffffffffffffffffffffffffff90811660009081526001602052604090206002015416151590565b73ffffffffffffffffffffffffffffffffffffffff818116600090815260016020818152604080842080840154600280830154835485516101009882161598909802600019011691909104601f8101869004860287018601909452838652606097879693959294911692918591908301828280156103de5780601f106103b3576101008083540402835291602001916103de565b820191906000526020600020905b8154815290600101906020018083116103c157829003601f168201915b505050505092509250925092509193909250565b336000908152600160209081526040822086516104119288019061068b565b505033600090815260016020819052604090912080820185905560028101805473ffffffffffffffffffffffffffffffffffffffff191673ffffffffffffffffffffffffffffffffffffffff86161790556003018290555b949350505050565b610479610750565b73ffffffffffffffffffffffffffffffffffffffff82166000908152600160208181526040928390208351815460029481161561010002600019011693909304601f8101839004909202830160a09081019094526080830182815292939092849290918491908401828280156105305780601f1061050557610100808354040283529160200191610530565b820191906000526020600020905b81548152906001019060200180831161051357829003601f168201915b505050918352505060018201546020820152600282015473ffffffffffffffffffffffffffffffffffffffff16604082015260039091015460609091015292915050565b73ffffffffffffffffffffffffffffffffffffffff8216600090815260016020819052604090912060030182905592915050565b60016020818152600092835260409283902080548451600294821615610100026000190190911693909304601f810183900483028401830190945283835292839183018282801561063a5780601f1061060f5761010080835404028352916020019161063a565b820191906000526020600020905b81548152906001019060200180831161061d57829003601f168201915b50505050600183015460028401546003909401549293909273ffffffffffffffffffffffffffffffffffffffff909116915084565b60005473ffffffffffffffffffffffffffffffffffffffff1681565b828054600181600116156101000203166002900490600052602060002090601f016020900481019282601f106106cc57805160ff19168380011785556106f9565b828001600101855582156106f9579182015b828111156106f95782518255916020019190600101906106de565b5061070592915061078f565b5090565b50805460018160011615610100020316600290046000825580601f1061072f575061074d565b601f01602090049060005260206000209081019061074d919061078f565b50565b6080604051908101604052806060815260200160008152602001600073ffffffffffffffffffffffffffffffffffffffff168152602001600081525090565b6107a991905b808211156107055760008155600101610795565b90565b60006107b88235610ac6565b9392505050565b6000601f820183136107d057600080fd5b81356107e36107de82610a9a565b610a73565b915080825260208301602083018583830111156107ff57600080fd5b61080a838284610ae4565b50505092915050565b60006107b882356107a9565b60006020828403121561083157600080fd5b600061046984846107ac565b6000806040838503121561085057600080fd5b600061085c85856107ac565b925050602061086d85828601610813565b9150509250929050565b6000806040838503121561088a57600080fd5b823567ffffffffffffffff8111156108a157600080fd5b61085c858286016107bf565b600080600080608085870312156108c357600080fd5b843567ffffffffffffffff8111156108da57600080fd5b6108e6878288016107bf565b94505060206108f787828801610813565b9350506040610908878288016107ac565b925050606061091987828801610813565b91505092959194509250565b61092e81610ac6565b82525050565b61092e81610adf565b600061094882610ac2565b80845261095c816020860160208601610af0565b61096581610b20565b9093016020019392505050565b805160808084526000919084019061098a828261093d565b915050602083015161099f60208601826109cd565b5060408301516109b26040860182610925565b5060608301516109c560608601826109cd565b509392505050565b61092e816107a9565b6020810161025e8284610925565b6020810161025e8284610934565b60608082528101610a03818661093d565b9050610a1260208301856109cd565b6104696040830184610925565b60808082528101610a30818761093d565b9050610a3f60208301866109cd565b610a4c6040830185610925565b610a5960608301846109cd565b95945050505050565b602080825281016107b88184610972565b60405181810167ffffffffffffffff81118282101715610a9257600080fd5b604052919050565b600067ffffffffffffffff821115610ab157600080fd5b506020601f91909101601f19160190565b5190565b73ffffffffffffffffffffffffffffffffffffffff1690565b151590565b82818337506000910152565b60005b83811015610b0b578181015183820152602001610af3565b83811115610b1a576000848401525b50505050565b601f01601f1916905600a265627a7a72305820bd8433b609daca1b22ec39b0b72c6b956ca77be5fd07f86c0b93336c4193fc5f6c6578706572696d656e74616cf50037",
  "source": "pragma solidity ^0.4.24;\npragma experimental ABIEncoderV2;\n\ninterface Itontine{\n\n\n    function join() external payable returns(bool);\n    function ping() external returns (bool);\n    function eliminate(address a) external  returns(bool);\n    function claimReward() external returns (bool);\n    event NewActivePlayerEv(address _address ,uint time);\n    event eliminatedPlayerEv(address _addrss);\n}\n\n contract Cplayer{\n\n\n    address public admin;\n    constructor() public {\n        admin=msg.sender;\n    }\n     struct player{\n        string name;\n        uint PhoneNumber;\n        address Paddress;\n        uint id;\n     }\n\n\n    mapping(address=>player) public players;\n\n    function AddPlayer(string _name, uint256 _phonenumber) public returns (bool){\n     players[msg.sender].name=_name;\n     players[msg.sender].Paddress=msg.sender;\n     players[msg.sender].PhoneNumber=_phonenumber;\n     return true;\n        }\n\n\n      modifier onlyadmin(){\n        require (msg.sender==admin);\n        _;\n    }\n\n    function RemovePlayer(address _address) public onlyadmin returns (bool) {\n        delete players[_address];\n        return true;\n    }\n\n    function EditPlayer(string _name, uint256 _phonenumber, address _address,uint256 _id) public returns (bool){\n        players[msg.sender].name=_name;\n        players[msg.sender].PhoneNumber=_phonenumber;\n        players[msg.sender].Paddress =_address;\n        players[msg.sender].id =_id;\n        return true;\n    }\n\n  function EditPlayer(address _address,uint256 _id)public returns (bool){\n        players[_address].id =_id;\n        return true;\n\n    }\n    function findplayer(address _address) public view returns (string,uint,address){\n        return ( players[_address].name, players[_address].PhoneNumber, players[_address].Paddress);\n    }\n\n    function exist(address _address) public view returns (bool){\n             return  (players[_address].Paddress!=0x00);\n    }\n\n    function getplayer(address _adress) public view  returns (player){\n        return players[_adress];\n    }\n }\n\n/*********************************************\n*Ctontine Contract\n*\n*******************************************/\n\ncontract Ctontine is Itontine {\n\n    mapping (address => uint256 ) public Tpension; // You can store structs as the values of your mapping, not as key.\n    Cplayer.player[] public active_players;\n    Cplayer.player[] public eliminated_players;\n    mapping(address=>uint) public ping_time;\n    uint256 public Lindex;\n\n    Cplayer  Tplayer;\n\n     constructor(address _CplayerAddress) public {\n         Tplayer= Cplayer(_CplayerAddress);\n\n    }\n\n     function join() public payable returns(bool){\n        require(Tplayer.exist(msg.sender),\"player doesn't exist\");\n        require(msg.value>=1 ether && Tpension[msg.sender]==0,\"send higher pension\");\n        Tpension[msg.sender]=msg.value;\n        Tplayer.EditPlayer(msg.sender,active_players.length);\n\n        active_players.push(Tplayer.getplayer(msg.sender));\n        Lindex +=(active_players.length-1);\n        ping_time[msg.sender]=now;\n        emit NewActivePlayerEv(msg.sender,now);\n        return true;\n    }\n\n\n    function ping() external  returns(bool) {\n\n    ping_time[msg.sender]=now;\n    return true;\n    }\n\n\n    function eliminate(address PlayerAddress) external  returns(bool){\n\n      require(now> ping_time[PlayerAddress] +1 days );\n      delete Tpension[PlayerAddress];\n      delete active_players[Tplayer.getplayer(PlayerAddress).id];\n      Lindex -= Tplayer.getplayer(PlayerAddress).id;\n      eliminated_players.push(Tplayer.getplayer(PlayerAddress));\n      Tplayer.EditPlayer(msg.sender,0);\n\n      share_pension(PlayerAddress);\n      emit eliminatedPlayerEv(PlayerAddress);\n      return true;\n\n  }\n\n  function share_pension(address user)internal returns (bool){\n    uint256 remainingPlayers=remaining_players();\n    for(uint i=0; i< active_players.length;i++){\n        if (active_players[i].Paddress!=0x00)\n            Tpension[active_players[i].Paddress]=calcul(Tpension[user],remainingPlayers,18);\n\n        }\n            return true;\n  }\n\n  function calcul(uint a, uint b, uint precision) public pure returns ( uint) {\n   require (b!=0);\n\n     return a*(10**(precision))/b;\n\n }\n\n\n  function remaining_players() public view returns (uint256){\n    return (active_players.length-eliminated_players.length);\n  }\n\n \n\nfunction claimReward() external returns (bool){\n            require(remaining_players()==1);\n            active_players[Lindex].Paddress.transfer(address(this).balance);\n            return true;\n}\n\n}\n\n",
  "sourcePath": "/home/user/DrizzleTontine/contracts/tontine.sol",
  "compiler": {
    "name": "solc",
    "version": "0.4.24+commit.e67f0147.Emscripten.clang"
  },
  "schemaVersion": "2.0.1",
  "updatedAt": "2018-07-25T23:03:30.307Z"
}