{
  "contractName": "Ctontine",
  "abi": [
    {
      "constant": true,
      "inputs": [
        {
          "name": "",
          "type": "uint256"
        }
      ],
      "name": "eliminated_players",
      "outputs": [
        {
          "name": "name",
          "type": "string"
        },
        {
          "name": "PhoneNumber",
          "type": "uint256"
        },
        {
          "name": "Paddress",
          "type": "address"
        },
        {
          "name": "id",
          "type": "uint256"
        }
      ],
      "payable": false,
      "stateMutability": "view",
      "type": "function"
    },
    {
      "constant": true,
      "inputs": [
        {
          "name": "",
          "type": "address"
        }
      ],
      "name": "ping_time",
      "outputs": [
        {
          "name": "",
          "type": "uint256"
        }
      ],
      "payable": false,
      "stateMutability": "view",
      "type": "function"
    },
    {
      "constant": true,
      "inputs": [
        {
          "name": "",
          "type": "uint256"
        }
      ],
      "name": "active_players",
      "outputs": [
        {
          "name": "name",
          "type": "string"
        },
        {
          "name": "PhoneNumber",
          "type": "uint256"
        },
        {
          "name": "Paddress",
          "type": "address"
        },
        {
          "name": "id",
          "type": "uint256"
        }
      ],
      "payable": false,
      "stateMutability": "view",
      "type": "function"
    },
    {
      "constant": true,
      "inputs": [
        {
          "name": "",
          "type": "address"
        }
      ],
      "name": "Tpension",
      "outputs": [
        {
          "name": "",
          "type": "uint256"
        }
      ],
      "payable": false,
      "stateMutability": "view",
      "type": "function"
    },
    {
      "constant": true,
      "inputs": [],
      "name": "Lindex",
      "outputs": [
        {
          "name": "",
          "type": "uint256"
        }
      ],
      "payable": false,
      "stateMutability": "view",
      "type": "function"
    },
    {
      "inputs": [
        {
          "name": "_CplayerAddress",
          "type": "address"
        }
      ],
      "payable": false,
      "stateMutability": "nonpayable",
      "type": "constructor"
    },
    {
      "anonymous": false,
      "inputs": [
        {
          "indexed": false,
          "name": "_address",
          "type": "address"
        },
        {
          "indexed": false,
          "name": "time",
          "type": "uint256"
        }
      ],
      "name": "NewActivePlayerEv",
      "type": "event"
    },
    {
      "anonymous": false,
      "inputs": [
        {
          "indexed": false,
          "name": "_addrss",
          "type": "address"
        }
      ],
      "name": "eliminatedPlayerEv",
      "type": "event"
    },
    {
      "constant": false,
      "inputs": [],
      "name": "join",
      "outputs": [
        {
          "name": "",
          "type": "bool"
        }
      ],
      "payable": true,
      "stateMutability": "payable",
      "type": "function"
    },
    {
      "constant": false,
      "inputs": [],
      "name": "ping",
      "outputs": [
        {
          "name": "",
          "type": "bool"
        }
      ],
      "payable": false,
      "stateMutability": "nonpayable",
      "type": "function"
    },
    {
      "constant": false,
      "inputs": [
        {
          "name": "PlayerAddress",
          "type": "address"
        }
      ],
      "name": "eliminate",
      "outputs": [
        {
          "name": "",
          "type": "bool"
        }
      ],
      "payable": false,
      "stateMutability": "nonpayable",
      "type": "function"
    },
    {
      "constant": true,
      "inputs": [
        {
          "name": "a",
          "type": "uint256"
        },
        {
          "name": "b",
          "type": "uint256"
        },
        {
          "name": "precision",
          "type": "uint256"
        }
      ],
      "name": "calcul",
      "outputs": [
        {
          "name": "",
          "type": "uint256"
        }
      ],
      "payable": false,
      "stateMutability": "pure",
      "type": "function"
    },
    {
      "constant": true,
      "inputs": [],
      "name": "remaining_players",
      "outputs": [
        {
          "name": "",
          "type": "uint256"
        }
      ],
      "payable": false,
      "stateMutability": "view",
      "type": "function"
    },
    {
      "constant": false,
      "inputs": [],
      "name": "claimReward",
      "outputs": [
        {
          "name": "",
          "type": "bool"
        }
      ],
      "payable": false,
      "stateMutability": "nonpayable",
      "type": "function"
    }
  ],
  "bytecode": "0x608060405234801561001057600080fd5b5060405160208061128e833981018060405261002f9190810190610067565b60058054600160a060020a031916600160a060020a0392909216919091179055610099565b6000610060825161008d565b9392505050565b60006020828403121561007957600080fd5b60006100858484610054565b949350505050565b600160a060020a031690565b6111e6806100a86000396000f3006080604052600436106100ae5763ffffffff7c01000000000000000000000000000000000000000000000000000000006000350416630119ada781146100b35780635c36b186146100e95780636be98865146100fe5780636fe2df87146101205780638021006514610140578063854742ae146101705780638f6d93b7146101905780639a8f411f146101b0578063b688a363146101d0578063b88a802f146101d8578063d7dc32e1146101ed575b600080fd5b3480156100bf57600080fd5b506100d36100ce366004610e8a565b610202565b6040516100e09190611077565b60405180910390f35b3480156100f557600080fd5b506100d3610624565b34801561010a57600080fd5b5061011361063c565b6040516100e091906110e8565b34801561012c57600080fd5b5061011361013b366004610f21565b610646565b34801561014c57600080fd5b5061016061015b366004610f03565b61066f565b6040516100e09493929190611085565b34801561017c57600080fd5b5061011361018b366004610e8a565b61074b565b34801561019c57600080fd5b506101606101ab366004610f03565b61075d565b3480156101bc57600080fd5b506101136101cb366004610e8a565b61076b565b6100d361077d565b3480156101e457600080fd5b506100d3610b1b565b3480156101f957600080fd5b50610113610ba1565b73ffffffffffffffffffffffffffffffffffffffff81166000908152600360205260408120546201518001421161023857600080fd5b73ffffffffffffffffffffffffffffffffffffffff8083166000908152602081905260408082209190915560055490517f93a2162700000000000000000000000000000000000000000000000000000000815260019291909116906393a21627906102a790869060040161102d565b600060405180830381600087803b1580156102c157600080fd5b505af11580156102d5573d6000803e3d6000fd5b505050506040513d6000823e601f3d908101601f191682016040526102fd9190810190610ece565b606001518154811061030b57fe5b600091825260208220600490910201906103258282610c94565b5060006001820181905560028201805473ffffffffffffffffffffffffffffffffffffffff191690556003909101556005546040517f93a2162700000000000000000000000000000000000000000000000000000000815273ffffffffffffffffffffffffffffffffffffffff909116906393a21627906103aa90859060040161102d565b600060405180830381600087803b1580156103c457600080fd5b505af11580156103d8573d6000803e3d6000fd5b505050506040513d6000823e601f3d908101601f191682016040526104009190810190610ece565b60600151600480549190910381556005546040517f93a2162700000000000000000000000000000000000000000000000000000000815260029273ffffffffffffffffffffffffffffffffffffffff909216916393a21627916104659187910161102d565b600060405180830381600087803b15801561047f57600080fd5b505af1158015610493573d6000803e3d6000fd5b505050506040513d6000823e601f3d908101601f191682016040526104bb9190810190610ece565b81546001810180845560009384526020938490208351805192956004909402909101926104ed92849290910190610cdb565b506020820151600182015560408083015160028301805473ffffffffffffffffffffffffffffffffffffffff191673ffffffffffffffffffffffffffffffffffffffff92831617905560609093015160039092019190915560055490517fc87573a20000000000000000000000000000000000000000000000000000000081529116915063c87573a290610588903390600090600401611041565b602060405180830381600087803b1580156105a257600080fd5b505af11580156105b6573d6000803e3d6000fd5b505050506040513d601f19601f820116820180604052506105da9190810190610eb0565b506105e482610ba7565b507f4d561b7ba398df48461b39a73417dea1c950164d86f8f61c4cd22f880563b9ea82604051610614919061102d565b60405180910390a1506001919050565b33600090815260036020526040902042905560015b90565b6002546001540390565b600082151561065457600080fd5b8282600a0a850281151561066457fe5b0490505b9392505050565b600280548290811061067d57fe5b60009182526020918290206004919091020180546040805160026001841615610100026000190190931692909204601f8101859004850283018501909152808252919350918391908301828280156107165780601f106106eb57610100808354040283529160200191610716565b820191906000526020600020905b8154815290600101906020018083116106f957829003601f168201915b50505050600183015460028401546003909401549293909273ffffffffffffffffffffffffffffffffffffffff909116915084565b60036020526000908152604090205481565b600180548290811061067d57fe5b60006020819052908152604090205481565b6005546040517f4dfefc4b00000000000000000000000000000000000000000000000000000000815260009173ffffffffffffffffffffffffffffffffffffffff1690634dfefc4b906107d490339060040161102d565b602060405180830381600087803b1580156107ee57600080fd5b505af1158015610802573d6000803e3d6000fd5b505050506040513d601f19601f820116820180604052506108269190810190610eb0565b1515610867576040517f08c379a000000000000000000000000000000000000000000000000000000000815260040161085e906110d8565b60405180910390fd5b670de0b6b3a7640000341015801561088c575033600090815260208190526040902054155b15156108c4576040517f08c379a000000000000000000000000000000000000000000000000000000000815260040161085e906110c8565b336000818152602081905260409081902034905560055460015491517fc87573a200000000000000000000000000000000000000000000000000000000815273ffffffffffffffffffffffffffffffffffffffff9091169263c87573a29261092e9260040161105c565b602060405180830381600087803b15801561094857600080fd5b505af115801561095c573d6000803e3d6000fd5b505050506040513d601f19601f820116820180604052506109809190810190610eb0565b506005546040517f93a2162700000000000000000000000000000000000000000000000000000000815260019173ffffffffffffffffffffffffffffffffffffffff16906393a21627906109d890339060040161102d565b600060405180830381600087803b1580156109f257600080fd5b505af1158015610a06573d6000803e3d6000fd5b505050506040513d6000823e601f3d908101601f19168201604052610a2e9190810190610ece565b8154600181018084556000938452602093849020835180519295600490940290910192610a6092849290910190610cdb565b5060208281015160018381019190915560408085015160028501805473ffffffffffffffffffffffffffffffffffffffff191673ffffffffffffffffffffffffffffffffffffffff90921691909117905560609094015160039384015554600480549091016000190190553360008181529290915290829020429081905591517fb0dbc4b7c9e2902ec1f1cce791e77364039b37854011c66691b63afddbbb85bd9350610b0d929061105c565b60405180910390a150600190565b6000610b2561063c565b600114610b3157600080fd5b6001600454815481101515610b4257fe5b6000918252602082206002600490920201015460405173ffffffffffffffffffffffffffffffffffffffff90911691303180156108fc02929091818181858888f19350505050158015610b99573d6000803e3d6000fd5b506001905090565b60045481565b6000806000610bb461063c565b9150600090505b600154811015610c8a576001805482908110610bd357fe5b600091825260209091206002600490920201015473ffffffffffffffffffffffffffffffffffffffff1615610c825773ffffffffffffffffffffffffffffffffffffffff8416600090815260208190526040902054610c3490836012610646565b600080600184815481101515610c4657fe5b600091825260208083206002600490930201919091015473ffffffffffffffffffffffffffffffffffffffff1683528201929092526040019020555b600101610bbb565b5060019392505050565b50805460018160011615610100020316600290046000825580601f10610cba5750610cd8565b601f016020900490600052602060002090810190610cd89190610d59565b50565b828054600181600116156101000203166002900490600052602060002090601f016020900481019282601f10610d1c57805160ff1916838001178555610d49565b82800160010185558215610d49579182015b82811115610d49578251825591602001919060010190610d2e565b50610d55929150610d59565b5090565b61063991905b80821115610d555760008155600101610d5f565b60006106688235611149565b60006106688251611149565b60006106688251611162565b6000601f82018313610da857600080fd5b8151610dbb610db68261111d565b6110f6565b91508082526020830160208301858383011115610dd757600080fd5b610de2838284611172565b50505092915050565b600060808284031215610dfd57600080fd5b610e0760806110f6565b825190915067ffffffffffffffff811115610e2157600080fd5b610e2d84828501610d97565b8252506020610e3e84848301610e7e565b6020830152506040610e5284828501610d7f565b6040830152506060610e6684828501610e7e565b60608301525092915050565b60006106688235610639565b60006106688251610639565b600060208284031215610e9c57600080fd5b6000610ea88484610d73565b949350505050565b600060208284031215610ec257600080fd5b6000610ea88484610d8b565b600060208284031215610ee057600080fd5b815167ffffffffffffffff811115610ef757600080fd5b610ea884828501610deb565b600060208284031215610f1557600080fd5b6000610ea88484610e72565b600080600060608486031215610f3657600080fd5b6000610f428686610e72565b9350506020610f5386828701610e72565b9250506040610f6486828701610e72565b9150509250925092565b610f7781611149565b82525050565b610f7781611162565b610f7781611167565b6000610f9a82611145565b808452610fae816020860160208601611172565b610fb7816111a2565b9093016020019392505050565b601381527f73656e64206869676865722070656e73696f6e00000000000000000000000000602082015260400190565b601481527f706c6179657220646f65736e2774206578697374000000000000000000000000602082015260400190565b610f7781610639565b6020810161103b8284610f6e565b92915050565b6040810161104f8285610f6e565b6106686020830184610f86565b6040810161106a8285610f6e565b6106686020830184611024565b6020810161103b8284610f7d565b608080825281016110968187610f8f565b90506110a56020830186611024565b6110b26040830185610f6e565b6110bf6060830184611024565b95945050505050565b6020808252810161103b81610fc4565b6020808252810161103b81610ff4565b6020810161103b8284611024565b60405181810167ffffffffffffffff8111828210171561111557600080fd5b604052919050565b600067ffffffffffffffff82111561113457600080fd5b506020601f91909101601f19160190565b5190565b73ffffffffffffffffffffffffffffffffffffffff1690565b151590565b600061103b82610639565b60005b8381101561118d578181015183820152602001611175565b8381111561119c576000848401525b50505050565b601f01601f1916905600a265627a7a72305820320121777acccc09aed34127ae6d04eeab547e50c7de3808600df438ee5fa7906c6578706572696d656e74616cf50037",
  "source": "pragma solidity ^0.4.24;\npragma experimental ABIEncoderV2;\n\ninterface Itontine{\n\n\n    function join() external payable returns(bool);\n    function ping() external returns (bool);\n    function eliminate(address a) external  returns(bool);\n    function claimReward() external returns (bool);\n    event NewActivePlayerEv(address _address ,uint time);\n    event eliminatedPlayerEv(address _addrss);\n}\n\n contract Cplayer{\n\n\n    address public admin;\n    constructor() public {\n        admin=msg.sender;\n    }\n     struct player{\n        string name;\n        uint PhoneNumber;\n        address Paddress;\n        uint id;\n     }\n\n\n    mapping(address=>player) public players;\n\n    function AddPlayer(string _name, uint256 _phonenumber) public returns (bool){\n     players[msg.sender].name=_name;\n     players[msg.sender].Paddress=msg.sender;\n     players[msg.sender].PhoneNumber=_phonenumber;\n     return true;\n        }\n\n\n      modifier onlyadmin(){\n        require (msg.sender==admin);\n        _;\n    }\n\n    function RemovePlayer(address _address) public onlyadmin returns (bool) {\n        delete players[_address];\n        return true;\n    }\n\n    function EditPlayer(string _name, uint256 _phonenumber, address _address,uint256 _id) public returns (bool){\n        players[msg.sender].name=_name;\n        players[msg.sender].PhoneNumber=_phonenumber;\n        players[msg.sender].Paddress =_address;\n        players[msg.sender].id =_id;\n        return true;\n    }\n\n  function EditPlayer(address _address,uint256 _id)public returns (bool){\n        players[_address].id =_id;\n        return true;\n\n    }\n    function findplayer(address _address) public view returns (string,uint,address){\n        return ( players[_address].name, players[_address].PhoneNumber, players[_address].Paddress);\n    }\n\n    function exist(address _address) public view returns (bool){\n             return  (players[_address].Paddress!=0x00);\n    }\n\n    function getplayer(address _adress) public view  returns (player){\n        return players[_adress];\n    }\n }\n\n/*********************************************\n*Ctontine Contract\n*\n*******************************************/\n\ncontract Ctontine is Itontine {\n\n    mapping (address => uint256 ) public Tpension; // You can store structs as the values of your mapping, not as key.\n    Cplayer.player[] public active_players;\n    Cplayer.player[] public eliminated_players;\n    mapping(address=>uint) public ping_time;\n    uint256 public Lindex;\n\n    Cplayer  Tplayer;\n\n     constructor(address _CplayerAddress) public {\n         Tplayer= Cplayer(_CplayerAddress);\n\n    }\n\n     function join() public payable returns(bool){\n        require(Tplayer.exist(msg.sender),\"player doesn't exist\");\n        require(msg.value>=1 ether && Tpension[msg.sender]==0,\"send higher pension\");\n        Tpension[msg.sender]=msg.value;\n        Tplayer.EditPlayer(msg.sender,active_players.length);\n\n        active_players.push(Tplayer.getplayer(msg.sender));\n        Lindex +=(active_players.length-1);\n        ping_time[msg.sender]=now;\n        emit NewActivePlayerEv(msg.sender,now);\n        return true;\n    }\n\n\n    function ping() external  returns(bool) {\n\n    ping_time[msg.sender]=now;\n    return true;\n    }\n\n\n    function eliminate(address PlayerAddress) external  returns(bool){\n\n      require(now> ping_time[PlayerAddress] +1 days );\n      delete Tpension[PlayerAddress];\n      delete active_players[Tplayer.getplayer(PlayerAddress).id];\n      Lindex -= Tplayer.getplayer(PlayerAddress).id;\n      eliminated_players.push(Tplayer.getplayer(PlayerAddress));\n      Tplayer.EditPlayer(msg.sender,0);\n\n      share_pension(PlayerAddress);\n      emit eliminatedPlayerEv(PlayerAddress);\n      return true;\n\n  }\n\n  function share_pension(address user)internal returns (bool){\n    uint256 remainingPlayers=remaining_players();\n    for(uint i=0; i< active_players.length;i++){\n        if (active_players[i].Paddress!=0x00)\n            Tpension[active_players[i].Paddress]=calcul(Tpension[user],remainingPlayers,18);\n\n        }\n            return true;\n  }\n\n  function calcul(uint a, uint b, uint precision) public pure returns ( uint) {\n   require (b!=0);\n\n     return a*(10**(precision))/b;\n\n }\n\n\n  function remaining_players() public view returns (uint256){\n    return (active_players.length-eliminated_players.length);\n  }\n\n \n\nfunction claimReward() external returns (bool){\n            require(remaining_players()==1);\n            active_players[Lindex].Paddress.transfer(address(this).balance);\n            return true;\n}\n\n}\n\n",
  "sourcePath": "/home/user/DrizzleTontine/contracts/tontine.sol",
  "compiler": {
    "name": "solc",
    "version": "0.4.24+commit.e67f0147.Emscripten.clang"
  },
  "schemaVersion": "2.0.1",
  "updatedAt": "2018-07-25T23:03:30.298Z"
}