{
  "contractName": "Funding",
  "abi": [
    {
      "constant": true,
      "inputs": [
        {
          "name": "",
          "type": "address"
        }
      ],
      "name": "balances",
      "outputs": [
        {
          "name": "",
          "type": "uint256"
        }
      ],
      "payable": false,
      "stateMutability": "view",
      "type": "function"
    },
    {
      "constant": true,
      "inputs": [],
      "name": "owner",
      "outputs": [
        {
          "name": "",
          "type": "address"
        }
      ],
      "payable": false,
      "stateMutability": "view",
      "type": "function"
    },
    {
      "constant": true,
      "inputs": [],
      "name": "raised",
      "outputs": [
        {
          "name": "",
          "type": "uint256"
        }
      ],
      "payable": false,
      "stateMutability": "view",
      "type": "function"
    },
    {
      "inputs": [],
      "payable": false,
      "stateMutability": "nonpayable",
      "type": "constructor"
    },
    {
      "constant": false,
      "inputs": [],
      "name": "donate",
      "outputs": [],
      "payable": true,
      "stateMutability": "payable",
      "type": "function"
    }
  ],
  "bytecode": "0x608060405234801561001057600080fd5b5060018054600160a060020a031916331790556101f9806100326000396000f3006080604052600436106100615763ffffffff7c010000000000000000000000000000000000000000000000000000000060003504166327e235e381146100665780638da5cb5b1461009c578063ed88c68e146100be578063f0ea4bfc146100c8575b600080fd5b34801561007257600080fd5b50610086610081366004610143565b6100dd565b6040516100939190610195565b60405180910390f35b3480156100a857600080fd5b506100b16100ef565b6040516100939190610181565b6100c661010b565b005b3480156100d457600080fd5b5061008661012a565b60026020526000908152604090205481565b60015473ffffffffffffffffffffffffffffffffffffffff1681565b3360009081526002602052604081208054349081019091558154019055565b60005481565b600061013c82356101a3565b9392505050565b60006020828403121561015557600080fd5b60006101618484610130565b949350505050565b610172816101a3565b82525050565b610172816101bc565b6020810161018f8284610169565b92915050565b6020810161018f8284610178565b73ffffffffffffffffffffffffffffffffffffffff1690565b905600a265627a7a723058204f34d0405ff3014a079a1db04a25ec07febea6788af7f8e7d13b32f7afae7c776c6578706572696d656e74616cf50037",
  "source": "pragma solidity ^0.4.24;\npragma experimental ABIEncoderV2;\n\ninterface Itontine{\n\n\n    function join() external payable returns(bool);\n    function ping() external returns (bool);\n    function eliminate(address a) external  returns(bool);\n    function claimReward() external returns (bool);\n    event NewActivePlayerEv(address _address,uint time);\n    event eliminatedPlayerEv(address _address);\n}\n\n contract Cplayer{\n\n\naddress admin;\n    constructor() public {\n        admin=msg.sender;\n    }\n     struct player{\n        string name;\n        uint PhoneNumber;\n        address Paddress;\n        uint id;\n     }\n\n\n    mapping(address=>player) public players;\n\nfunction AddPlayer(string _name, uint256 _phonenumber) public returns (bool){\n players[msg.sender].name=_name;\n players[msg.sender].Paddress=msg.sender;\n players[msg.sender].PhoneNumber=_phonenumber;\nreturn true;\n    }\n\n\n      modifier onlyadmin(){\n        require (msg.sender==admin);\n        _;\n    }\n    function RemovePlayer(address _address) public onlyadmin returns (bool) {\n\n        delete players[_address];\n        return true;\n    }\n\n    function EditPlayer(string _name, uint256 _phonenumber, address _address,uint256 _id) public returns (bool){\n\n        players[msg.sender].name=_name;\n        players[msg.sender].PhoneNumber=_phonenumber;\n        players[msg.sender].Paddress =_address;\n        players[msg.sender].id =_id;\nreturn true;\n    }\n\n  function EditPlayer(address _address,uint256 _id)public returns (bool){\n\n        players[_address].id =_id;\n        return true;\n\n    }\n    function findplayer(address _address) public view returns (string,uint,address){\n        return ( players[_address].name, players[_address].PhoneNumber, players[_address].Paddress);\n    }\n\n    function exist(address _address) public view returns (bool){\n             return  (players[_address].Paddress!=0x00);\n    }\n\nfunction getplayer(address _adress) public view  returns (player){\n    return players[_adress];\n}\n }\n\n//address contract=this;\n/*******************************\n*\n*\n*******************************/\ncontract Funding {\n  uint public raised;\n  address public owner;\n  mapping(address => uint) public balances;\n\n  function Funding() public {\n    owner = msg.sender;\n  }\n\n  function donate() public payable {\n    balances[msg.sender] += msg.value;\n    raised += msg.value;\n  }\n}\n\ncontract Ctontine is Itontine {\n\n    mapping (address => uint256 ) public Tpension; // You can store structs as the values of your mapping, not as the key.\n    Cplayer.player[] public active_players;\n    Cplayer.player[] public eliminated_players;\n    mapping(address=>uint) public ping_time;\n    uint256 public indices; //change this to index\n\n    Cplayer  Tplayer;\n\n     constructor(address _CplayerAddress) public {\n         Tplayer= Cplayer(_CplayerAddress);\n\n    }\n\n\n    function eliminate(address PlayerAddress) public{ ////CORRECT SYTANX\n\n      require(now> ping_time[PlayerAddress] +1 days );\n      delete Tpension[PlayerAddress]; // filled with zeros\n      delete active_players[Tplayer.getplayer(PlayerAddress).id];//maybe add id to structs\n      indices -= Tplayer.getplayer(PlayerAddress).id;\n      eliminated_players.push(Tplayer.getplayer(PlayerAddress));\n      Tplayer.EditPlayer(msg.sender,0);\n\n      share_pension(PlayerAddress);\n      emit eliminatedPlayerEv(PlayerAddress);\n\n  }\n\n  function share_pension(address user)internal returns (bool){\n    uint remaining_players=active_players.length-eliminated_players.length;\n    for(uint i=0; i< active_players.length;i++){\n        if (active_players[i].Paddress!=0x00)\n            Tpension[active_players[i].Paddress]=Tpension[user]/remaining_players;\n\n        }\n            return true;\n  }\n\n /* function  check() public  returns (bool){\n\n      return Tplayer.exist(msg.sender);\n  }*/\nfunction () public payable{}\n function join2() external payable returns(bool){ return true; }\n\n function join() public payable returns(bool){ // make it external\n  require(Tplayer.exist(msg.sender),\"player doesn't exist\");\n   require(msg.value>=1 && Tpension[msg.sender]==0,\"send higher pension\");\n    Tpension[msg.sender]=msg.value;\n    Tplayer.EditPlayer(msg.sender,active_players.length);\n\n    active_players.push(Tplayer.getplayer(msg.sender));\n    indices +=(active_players.length-1);\n    ping_time[msg.sender]=now;\n    emit NewActivePlayerEv(msg.sender,now);\n    return true;\n}\n\nfunction ping() public {\n\n//require(isequal(1),\"pinged with number different than 1\");\nping_time[msg.sender]=now;\n\n}\n\nfunction isequal(uint a) pure public returns (bool) {\n        uint x = 0;\n        for (uint i = 0; i < 32; i++) {\n            uint b = uint(msg.data[35 - i]);    //msg.data is of type calldata\n            x += b * 256**i;\n        }\n        return (a == x);\n    }\n\n\n\nfunction claimReward() public returns (bool){\n            require(active_players.length==1);\n            active_players[indices].Paddress.transfer(address(this).balance);\n            return true;\n}\n\n\n \n}\n\n",
  "sourcePath": "/home/user/DrizzleTontine/contracts/tontine.sol",
  "compiler": {
    "name": "solc",
    "version": "0.4.24+commit.e67f0147.Emscripten.clang"
  },
  "schemaVersion": "2.0.1",
  "updatedAt": "2018-07-20T19:18:41.565Z"
}