{
  "contractName": "Cplayer",
  "abi": [
    {
      "constant": true,
      "inputs": [
        {
          "name": "",
          "type": "address"
        }
      ],
      "name": "players",
      "outputs": [
        {
          "name": "name",
          "type": "string"
        },
        {
          "name": "PhoneNumber",
          "type": "uint256"
        },
        {
          "name": "Paddress",
          "type": "address"
        },
        {
          "name": "id",
          "type": "uint256"
        }
      ],
      "payable": false,
      "stateMutability": "view",
      "type": "function"
    },
    {
      "constant": true,
      "inputs": [],
      "name": "admin",
      "outputs": [
        {
          "name": "",
          "type": "address"
        }
      ],
      "payable": false,
      "stateMutability": "view",
      "type": "function"
    },
    {
      "inputs": [],
      "payable": false,
      "stateMutability": "nonpayable",
      "type": "constructor"
    },
    {
      "constant": false,
      "inputs": [
        {
          "name": "_name",
          "type": "string"
        },
        {
          "name": "_phonenumber",
          "type": "uint256"
        }
      ],
      "name": "AddPlayer",
      "outputs": [
        {
          "name": "",
          "type": "bool"
        }
      ],
      "payable": false,
      "stateMutability": "nonpayable",
      "type": "function"
    },
    {
      "constant": false,
      "inputs": [
        {
          "name": "_address",
          "type": "address"
        }
      ],
      "name": "RemovePlayer",
      "outputs": [
        {
          "name": "",
          "type": "bool"
        }
      ],
      "payable": false,
      "stateMutability": "nonpayable",
      "type": "function"
    },
    {
      "constant": false,
      "inputs": [
        {
          "name": "_name",
          "type": "string"
        },
        {
          "name": "_phonenumber",
          "type": "uint256"
        },
        {
          "name": "_address",
          "type": "address"
        },
        {
          "name": "_id",
          "type": "uint256"
        }
      ],
      "name": "EditPlayer",
      "outputs": [
        {
          "name": "",
          "type": "bool"
        }
      ],
      "payable": false,
      "stateMutability": "nonpayable",
      "type": "function"
    },
    {
      "constant": false,
      "inputs": [
        {
          "name": "_address",
          "type": "address"
        },
        {
          "name": "_id",
          "type": "uint256"
        }
      ],
      "name": "EditPlayer",
      "outputs": [
        {
          "name": "",
          "type": "bool"
        }
      ],
      "payable": false,
      "stateMutability": "nonpayable",
      "type": "function"
    },
    {
      "constant": true,
      "inputs": [
        {
          "name": "_address",
          "type": "address"
        }
      ],
      "name": "findplayer",
      "outputs": [
        {
          "name": "",
          "type": "string"
        },
        {
          "name": "",
          "type": "uint256"
        },
        {
          "name": "",
          "type": "address"
        }
      ],
      "payable": false,
      "stateMutability": "view",
      "type": "function"
    },
    {
      "constant": true,
      "inputs": [
        {
          "name": "_address",
          "type": "address"
        }
      ],
      "name": "exist",
      "outputs": [
        {
          "name": "",
          "type": "bool"
        }
      ],
      "payable": false,
      "stateMutability": "view",
      "type": "function"
    },
    {
      "constant": true,
      "inputs": [
        {
          "name": "_adress",
          "type": "address"
        }
      ],
      "name": "getplayer",
      "outputs": [
        {
          "components": [
            {
              "name": "name",
              "type": "string"
            },
            {
              "name": "PhoneNumber",
              "type": "uint256"
            },
            {
              "name": "Paddress",
              "type": "address"
            },
            {
              "name": "id",
              "type": "uint256"
            }
          ],
          "name": "",
          "type": "tuple"
        }
      ],
      "payable": false,
      "stateMutability": "view",
      "type": "function"
    }
  ],
  "bytecode": "0x608060405234801561001057600080fd5b50336000806101000a81548173ffffffffffffffffffffffffffffffffffffffff021916908373ffffffffffffffffffffffffffffffffffffffff16021790555061113d806100606000396000f300608060405260043610610099576000357c0100000000000000000000000000000000000000000000000000000000900463ffffffff1680630d1da1af1461009e57806334aeefd5146100db5780634dfefc4b146101185780635c81e1c5146101555780636247391d1461019457806393a21627146101d1578063c87573a21461020e578063e2eb41ff1461024b578063f851a4401461028b575b600080fd5b3480156100aa57600080fd5b506100c560048036036100c09190810190610d34565b6102b6565b6040516100d29190610f1a565b60405180910390f35b3480156100e757600080fd5b5061010260048036036100fd9190810190610ccf565b6103e1565b60405161010f9190610f1a565b60405180910390f35b34801561012457600080fd5b5061013f600480360361013a9190810190610ccf565b6104d0565b60405161014c9190610f1a565b60405180910390f35b34801561016157600080fd5b5061017c60048036036101779190810190610ccf565b610555565b60405161018b93929190610f35565b60405180910390f35b3480156101a057600080fd5b506101bb60048036036101b69190810190610d88565b6106eb565b6040516101c89190610f1a565b60405180910390f35b3480156101dd57600080fd5b506101f860048036036101f39190810190610ccf565b61085f565b6040516102059190610fbf565b60405180910390f35b34801561021a57600080fd5b5061023560048036036102309190810190610cf8565b6109c5565b6040516102429190610f1a565b60405180910390f35b34801561025757600080fd5b50610272600480360361026d9190810190610ccf565b610a18565b6040516102829493929190610f73565b60405180910390f35b34801561029757600080fd5b506102a0610b00565b6040516102ad9190610eff565b60405180910390f35b600082600160003373ffffffffffffffffffffffffffffffffffffffff1673ffffffffffffffffffffffffffffffffffffffff168152602001908152602001600020600001908051906020019061030e929190610b25565b5033600160003373ffffffffffffffffffffffffffffffffffffffff1673ffffffffffffffffffffffffffffffffffffffff16815260200190815260200160002060020160006101000a81548173ffffffffffffffffffffffffffffffffffffffff021916908373ffffffffffffffffffffffffffffffffffffffff16021790555081600160003373ffffffffffffffffffffffffffffffffffffffff1673ffffffffffffffffffffffffffffffffffffffff168152602001908152602001600020600101819055506001905092915050565b60008060009054906101000a900473ffffffffffffffffffffffffffffffffffffffff1673ffffffffffffffffffffffffffffffffffffffff163373ffffffffffffffffffffffffffffffffffffffff1614151561043e57600080fd5b600160008373ffffffffffffffffffffffffffffffffffffffff1673ffffffffffffffffffffffffffffffffffffffff1681526020019081526020016000206000808201600061048e9190610ba5565b60018201600090556002820160006101000a81549073ffffffffffffffffffffffffffffffffffffffff02191690556003820160009055505060019050919050565b600080600160008473ffffffffffffffffffffffffffffffffffffffff1673ffffffffffffffffffffffffffffffffffffffff16815260200190815260200160002060020160009054906101000a900473ffffffffffffffffffffffffffffffffffffffff1673ffffffffffffffffffffffffffffffffffffffff1614159050919050565b6060600080600160008573ffffffffffffffffffffffffffffffffffffffff1673ffffffffffffffffffffffffffffffffffffffff168152602001908152602001600020600001600160008673ffffffffffffffffffffffffffffffffffffffff1673ffffffffffffffffffffffffffffffffffffffff16815260200190815260200160002060010154600160008773ffffffffffffffffffffffffffffffffffffffff1673ffffffffffffffffffffffffffffffffffffffff16815260200190815260200160002060020160009054906101000a900473ffffffffffffffffffffffffffffffffffffffff16828054600181600116156101000203166002900480601f0160208091040260200160405190810160405280929190818152602001828054600181600116156101000203166002900480156106d75780601f106106ac576101008083540402835291602001916106d7565b820191906000526020600020905b8154815290600101906020018083116106ba57829003601f168201915b505050505092509250925092509193909250565b600084600160003373ffffffffffffffffffffffffffffffffffffffff1673ffffffffffffffffffffffffffffffffffffffff1681526020019081526020016000206000019080519060200190610743929190610b25565b5083600160003373ffffffffffffffffffffffffffffffffffffffff1673ffffffffffffffffffffffffffffffffffffffff1681526020019081526020016000206001018190555082600160003373ffffffffffffffffffffffffffffffffffffffff1673ffffffffffffffffffffffffffffffffffffffff16815260200190815260200160002060020160006101000a81548173ffffffffffffffffffffffffffffffffffffffff021916908373ffffffffffffffffffffffffffffffffffffffff16021790555081600160003373ffffffffffffffffffffffffffffffffffffffff1673ffffffffffffffffffffffffffffffffffffffff1681526020019081526020016000206003018190555060019050949350505050565b610867610bed565b600160008373ffffffffffffffffffffffffffffffffffffffff1673ffffffffffffffffffffffffffffffffffffffff16815260200190815260200160002060806040519081016040529081600082018054600181600116156101000203166002900480601f01602080910402602001604051908101604052809291908181526020018280546001816001161561010002031660029004801561094b5780601f106109205761010080835404028352916020019161094b565b820191906000526020600020905b81548152906001019060200180831161092e57829003601f168201915b50505050508152602001600182015481526020016002820160009054906101000a900473ffffffffffffffffffffffffffffffffffffffff1673ffffffffffffffffffffffffffffffffffffffff1673ffffffffffffffffffffffffffffffffffffffff1681526020016003820154815250509050919050565b600081600160008573ffffffffffffffffffffffffffffffffffffffff1673ffffffffffffffffffffffffffffffffffffffff168152602001908152602001600020600301819055506001905092915050565b6001602052806000526040600020600091509050806000018054600181600116156101000203166002900480601f016020809104026020016040519081016040528092919081815260200182805460018160011615610100020316600290048015610ac45780601f10610a9957610100808354040283529160200191610ac4565b820191906000526020600020905b815481529060010190602001808311610aa757829003601f168201915b5050505050908060010154908060020160009054906101000a900473ffffffffffffffffffffffffffffffffffffffff16908060030154905084565b6000809054906101000a900473ffffffffffffffffffffffffffffffffffffffff1681565b828054600181600116156101000203166002900490600052602060002090601f016020900481019282601f10610b6657805160ff1916838001178555610b94565b82800160010185558215610b94579182015b82811115610b93578251825591602001919060010190610b78565b5b509050610ba19190610c2c565b5090565b50805460018160011615610100020316600290046000825580601f10610bcb5750610bea565b601f016020900490600052602060002090810190610be99190610c2c565b5b50565b6080604051908101604052806060815260200160008152602001600073ffffffffffffffffffffffffffffffffffffffff168152602001600081525090565b610c4e91905b80821115610c4a576000816000905550600101610c32565b5090565b90565b6000610c5d8235611086565b905092915050565b600082601f8301121515610c7857600080fd5b8135610c8b610c868261100e565b610fe1565b91508082526020830160208301858383011115610ca757600080fd5b610cb28382846110b0565b50505092915050565b6000610cc782356110a6565b905092915050565b600060208284031215610ce157600080fd5b6000610cef84828501610c51565b91505092915050565b60008060408385031215610d0b57600080fd5b6000610d1985828601610c51565b9250506020610d2a85828601610cbb565b9150509250929050565b60008060408385031215610d4757600080fd5b600083013567ffffffffffffffff811115610d6157600080fd5b610d6d85828601610c65565b9250506020610d7e85828601610cbb565b9150509250929050565b60008060008060808587031215610d9e57600080fd5b600085013567ffffffffffffffff811115610db857600080fd5b610dc487828801610c65565b9450506020610dd587828801610cbb565b9350506040610de687828801610c51565b9250506060610df787828801610cbb565b91505092959194509250565b610e0c81611050565b82525050565b610e1b81611070565b82525050565b6000610e2c82611045565b808452610e408160208601602086016110bf565b610e49816110f2565b602085010191505092915050565b6000610e628261103a565b808452610e768160208601602086016110bf565b610e7f816110f2565b602085010191505092915050565b60006080830160008301518482036000860152610eaa8282610e57565b9150506020830151610ebf6020860182610ef0565b506040830151610ed26040860182610e03565b506060830151610ee56060860182610ef0565b508091505092915050565b610ef98161107c565b82525050565b6000602082019050610f146000830184610e03565b92915050565b6000602082019050610f2f6000830184610e12565b92915050565b60006060820190508181036000830152610f4f8186610e21565b9050610f5e6020830185610ef0565b610f6b6040830184610e03565b949350505050565b60006080820190508181036000830152610f8d8187610e57565b9050610f9c6020830186610ef0565b610fa96040830185610e03565b610fb66060830184610ef0565b95945050505050565b60006020820190508181036000830152610fd98184610e8d565b905092915050565b6000604051905081810181811067ffffffffffffffff8211171561100457600080fd5b8060405250919050565b600067ffffffffffffffff82111561102557600080fd5b601f19601f8301169050602081019050919050565b600081519050919050565b600081519050919050565b600073ffffffffffffffffffffffffffffffffffffffff82169050919050565b60008115159050919050565b6000819050919050565b600073ffffffffffffffffffffffffffffffffffffffff82169050919050565b6000819050919050565b82818337600083830152505050565b60005b838110156110dd5780820151818401526020810190506110c2565b838111156110ec576000848401525b50505050565b6000601f19601f83011690509190505600a265627a7a723058208837b5ea9d5361226e5c878c913f96b3f6a325810af5667e742d51b54f69026d6c6578706572696d656e74616cf50037",
  "source": "pragma solidity ^0.4.24;\npragma experimental ABIEncoderV2;\n\ninterface Itontine{\n\n\n    function join() external payable returns(bool);\n    function ping() external returns (bool);\n    function eliminate(address a) external  returns(bool);\n    function claimReward() external returns (bool);\n    event NewActivePlayerEv(address _address ,uint time);\n    event eliminatedPlayerEv(address _addrss);\n}\n\n contract Cplayer{\n\n\n    address public admin;\n    constructor() public {\n        admin=msg.sender;\n    }\n     struct player{\n        string name;\n        uint PhoneNumber;\n        address Paddress;\n        uint id;\n     }\n\n\n    mapping(address=>player) public players;\n\n    function AddPlayer(string _name, uint256 _phonenumber) public returns (bool){\n     players[msg.sender].name=_name;\n     players[msg.sender].Paddress=msg.sender;\n     players[msg.sender].PhoneNumber=_phonenumber;\n     return true;\n        }\n\n\n      modifier onlyadmin(){\n        require (msg.sender==admin);\n        _;\n    }\n\n    function RemovePlayer(address _address) public onlyadmin returns (bool) {\n        delete players[_address];\n        return true;\n    }\n\n    function EditPlayer(string _name, uint256 _phonenumber, address _address,uint256 _id) public returns (bool){\n        players[msg.sender].name=_name;\n        players[msg.sender].PhoneNumber=_phonenumber;\n        players[msg.sender].Paddress =_address;\n        players[msg.sender].id =_id;\n        return true;\n    }\n\n  function EditPlayer(address _address,uint256 _id)public returns (bool){\n        players[_address].id =_id;\n        return true;\n\n    }\n    function findplayer(address _address) public view returns (string,uint,address){\n        return ( players[_address].name, players[_address].PhoneNumber, players[_address].Paddress);\n    }\n\n    function exist(address _address) public view returns (bool){\n             return  (players[_address].Paddress!=0x00);\n    }\n\n    function getplayer(address _adress) public view  returns (player){\n        return players[_adress];\n    }\n }\n\n/*********************************************\n*Ctontine Contract\n*\n*******************************************/\n\ncontract Ctontine is Itontine {\n\n    mapping (address => uint256 ) public Tpension; // You can store structs as the values of your mapping, not as key.\n    Cplayer.player[] public active_players;\n    Cplayer.player[] public eliminated_players;\n    mapping(address=>uint) public ping_time;\n    uint256 public Lindex;\n\n    Cplayer  Tplayer;\n\n     constructor(address _CplayerAddress) public {\n         Tplayer= Cplayer(_CplayerAddress);\n\n    }\n\n     function join() public payable returns(bool){\n        require(Tplayer.exist(msg.sender),\"player doesn't exist\");\n        require(msg.value>=1 ether && Tpension[msg.sender]==0,\"send higher pension\");\n        Tpension[msg.sender]=msg.value;\n        Tplayer.EditPlayer(msg.sender,active_players.length);\n\n        active_players.push(Tplayer.getplayer(msg.sender));\n        Lindex +=(active_players.length-1);\n        ping_time[msg.sender]=now;\n        emit NewActivePlayerEv(msg.sender,now);\n        return true;\n    }\n\n\n    function ping() external  returns(bool) {\n\n    ping_time[msg.sender]=now;\n    return true;\n    }\n\n\n    function eliminate(address PlayerAddress) external  returns(bool){\n\n      require(now> ping_time[PlayerAddress] +1 days );\n      delete Tpension[PlayerAddress];\n      delete active_players[Tplayer.getplayer(PlayerAddress).id];\n      Lindex -= Tplayer.getplayer(PlayerAddress).id;\n      eliminated_players.push(Tplayer.getplayer(PlayerAddress));\n      Tplayer.EditPlayer(msg.sender,0);\n\n      share_pension(PlayerAddress);\n      emit eliminatedPlayerEv(PlayerAddress);\n      return true;\n\n  }\n\n  function share_pension(address user)internal returns (bool){\n    uint256 remainingPlayers=remaining_players();\n    for(uint i=0; i< active_players.length;i++){\n        if (active_players[i].Paddress!=0x00)\n            Tpension[active_players[i].Paddress]=calcul(Tpension[user],remainingPlayers,18);\n\n        }\n            return true;\n  }\n\n  function calcul(uint a, uint b, uint precision) public pure returns ( uint) {\n   require (b!=0);\n\n     return a*(10**(precision))/b;\n\n }\n\n\n  function remaining_players() public view returns (uint256){\n    return (active_players.length-eliminated_players.length);\n  }\n\n \n\nfunction claimReward() external returns (bool){\n            require(remaining_players()==1);\n            active_players[Lindex].Paddress.transfer(address(this).balance);\n            return true;\n}\n\n}\n\n",
  "sourcePath": "/home/user/tontine/contracts/tontine.sol",
  "compiler": {
    "name": "solc",
    "version": "0.4.24+commit.e67f0147.Emscripten.clang"
  },
  "schemaVersion": "2.0.1",
  "updatedAt": "2018-07-26T11:20:37.402Z"
}