{
  "contractName": "Ctontine",
  "abi": [
    {
      "constant": true,
      "inputs": [
        {
          "name": "",
          "type": "uint256"
        }
      ],
      "name": "eliminated_players",
      "outputs": [
        {
          "name": "name",
          "type": "string"
        },
        {
          "name": "PhoneNumber",
          "type": "uint256"
        },
        {
          "name": "Paddress",
          "type": "address"
        },
        {
          "name": "id",
          "type": "uint256"
        }
      ],
      "payable": false,
      "stateMutability": "view",
      "type": "function"
    },
    {
      "constant": true,
      "inputs": [
        {
          "name": "",
          "type": "address"
        }
      ],
      "name": "ping_time",
      "outputs": [
        {
          "name": "",
          "type": "uint256"
        }
      ],
      "payable": false,
      "stateMutability": "view",
      "type": "function"
    },
    {
      "constant": true,
      "inputs": [
        {
          "name": "",
          "type": "uint256"
        }
      ],
      "name": "active_players",
      "outputs": [
        {
          "name": "name",
          "type": "string"
        },
        {
          "name": "PhoneNumber",
          "type": "uint256"
        },
        {
          "name": "Paddress",
          "type": "address"
        },
        {
          "name": "id",
          "type": "uint256"
        }
      ],
      "payable": false,
      "stateMutability": "view",
      "type": "function"
    },
    {
      "constant": true,
      "inputs": [
        {
          "name": "",
          "type": "address"
        }
      ],
      "name": "Tpension",
      "outputs": [
        {
          "name": "",
          "type": "uint256"
        }
      ],
      "payable": false,
      "stateMutability": "view",
      "type": "function"
    },
    {
      "constant": true,
      "inputs": [],
      "name": "Lindex",
      "outputs": [
        {
          "name": "",
          "type": "uint256"
        }
      ],
      "payable": false,
      "stateMutability": "view",
      "type": "function"
    },
    {
      "inputs": [
        {
          "name": "_CplayerAddress",
          "type": "address"
        }
      ],
      "payable": false,
      "stateMutability": "nonpayable",
      "type": "constructor"
    },
    {
      "anonymous": false,
      "inputs": [
        {
          "indexed": false,
          "name": "_address",
          "type": "address"
        },
        {
          "indexed": false,
          "name": "time",
          "type": "uint256"
        }
      ],
      "name": "NewActivePlayerEv",
      "type": "event"
    },
    {
      "anonymous": false,
      "inputs": [
        {
          "indexed": false,
          "name": "_addrss",
          "type": "address"
        }
      ],
      "name": "eliminatedPlayerEv",
      "type": "event"
    },
    {
      "constant": false,
      "inputs": [],
      "name": "join",
      "outputs": [
        {
          "name": "",
          "type": "bool"
        }
      ],
      "payable": true,
      "stateMutability": "payable",
      "type": "function"
    },
    {
      "constant": false,
      "inputs": [],
      "name": "ping",
      "outputs": [
        {
          "name": "",
          "type": "bool"
        }
      ],
      "payable": false,
      "stateMutability": "nonpayable",
      "type": "function"
    },
    {
      "constant": false,
      "inputs": [
        {
          "name": "PlayerAddress",
          "type": "address"
        }
      ],
      "name": "eliminate",
      "outputs": [
        {
          "name": "",
          "type": "bool"
        }
      ],
      "payable": false,
      "stateMutability": "nonpayable",
      "type": "function"
    },
    {
      "constant": true,
      "inputs": [
        {
          "name": "a",
          "type": "uint256"
        },
        {
          "name": "b",
          "type": "uint256"
        },
        {
          "name": "precision",
          "type": "uint256"
        }
      ],
      "name": "calcul",
      "outputs": [
        {
          "name": "",
          "type": "uint256"
        }
      ],
      "payable": false,
      "stateMutability": "pure",
      "type": "function"
    },
    {
      "constant": true,
      "inputs": [],
      "name": "remaining_players",
      "outputs": [
        {
          "name": "",
          "type": "uint256"
        }
      ],
      "payable": false,
      "stateMutability": "view",
      "type": "function"
    },
    {
      "constant": false,
      "inputs": [],
      "name": "claimReward",
      "outputs": [
        {
          "name": "",
          "type": "bool"
        }
      ],
      "payable": false,
      "stateMutability": "nonpayable",
      "type": "function"
    }
  ],
  "bytecode": "0x608060405234801561001057600080fd5b506040516020806200195c8339810180604052610030919081019061008b565b80600560006101000a81548173ffffffffffffffffffffffffffffffffffffffff021916908373ffffffffffffffffffffffffffffffffffffffff160217905550506100d4565b600061008382516100b4565b905092915050565b60006020828403121561009d57600080fd5b60006100ab84828501610077565b91505092915050565b600073ffffffffffffffffffffffffffffffffffffffff82169050919050565b61187880620000e46000396000f3006080604052600436106100af576000357c0100000000000000000000000000000000000000000000000000000000900463ffffffff1680630119ada7146100b45780635c36b186146100f15780636be988651461011c5780636fe2df87146101475780638021006514610184578063854742ae146101c45780638f6d93b7146102015780639a8f411f14610241578063b688a3631461027e578063b88a802f1461029c578063d7dc32e1146102c7575b600080fd5b3480156100c057600080fd5b506100db60048036036100d691908101906113fe565b6102f2565b6040516100e89190611656565b60405180910390f35b3480156100fd57600080fd5b5061010661082e565b6040516101139190611656565b60405180910390f35b34801561012857600080fd5b5061013161087b565b60405161013e91906116fd565b60405180910390f35b34801561015357600080fd5b5061016e600480360361016991908101906114ba565b61088f565b60405161017b91906116fd565b60405180910390f35b34801561019057600080fd5b506101ab60048036036101a69190810190611491565b6108ba565b6040516101bb9493929190611671565b60405180910390f35b3480156101d057600080fd5b506101eb60048036036101e691908101906113fe565b6109b1565b6040516101f891906116fd565b60405180910390f35b34801561020d57600080fd5b5061022860048036036102239190810190611491565b6109c9565b6040516102389493929190611671565b60405180910390f35b34801561024d57600080fd5b50610268600480360361026391908101906113fe565b610ac0565b60405161027591906116fd565b60405180910390f35b610286610ad8565b6040516102939190611656565b60405180910390f35b3480156102a857600080fd5b506102b1610fa0565b6040516102be9190611656565b60405180910390f35b3480156102d357600080fd5b506102dc61105f565b6040516102e991906116fd565b60405180910390f35b600062015180600360008473ffffffffffffffffffffffffffffffffffffffff1673ffffffffffffffffffffffffffffffffffffffff16815260200190815260200160002054014211151561034657600080fd5b6000808373ffffffffffffffffffffffffffffffffffffffff1673ffffffffffffffffffffffffffffffffffffffff168152602001908152602001600020600090556001600560009054906101000a900473ffffffffffffffffffffffffffffffffffffffff1673ffffffffffffffffffffffffffffffffffffffff166393a21627846040518263ffffffff167c010000000000000000000000000000000000000000000000000000000002815260040161040191906115e9565b600060405180830381600087803b15801561041b57600080fd5b505af115801561042f573d6000803e3d6000fd5b505050506040513d6000823e3d601f19601f820116820180604052506104589190810190611450565b6060015181548110151561046857fe5b90600052602060002090600402016000808201600061048791906111cb565b60018201600090556002820160006101000a81549073ffffffffffffffffffffffffffffffffffffffff021916905560038201600090555050600560009054906101000a900473ffffffffffffffffffffffffffffffffffffffff1673ffffffffffffffffffffffffffffffffffffffff166393a21627836040518263ffffffff167c010000000000000000000000000000000000000000000000000000000002815260040161053791906115e9565b600060405180830381600087803b15801561055157600080fd5b505af1158015610565573d6000803e3d6000fd5b505050506040513d6000823e3d601f19601f8201168201806040525061058e9190810190611450565b606001516004600082825403925050819055506002600560009054906101000a900473ffffffffffffffffffffffffffffffffffffffff1673ffffffffffffffffffffffffffffffffffffffff166393a21627846040518263ffffffff167c010000000000000000000000000000000000000000000000000000000002815260040161061a91906115e9565b600060405180830381600087803b15801561063457600080fd5b505af1158015610648573d6000803e3d6000fd5b505050506040513d6000823e3d601f19601f820116820180604052506106719190810190611450565b9080600181540180825580915050906001820390600052602060002090600402016000909192909190915060008201518160000190805190602001906106b8929190611213565b506020820151816001015560408201518160020160006101000a81548173ffffffffffffffffffffffffffffffffffffffff021916908373ffffffffffffffffffffffffffffffffffffffff16021790555060608201518160030155505050600560009054906101000a900473ffffffffffffffffffffffffffffffffffffffff1673ffffffffffffffffffffffffffffffffffffffff1663c87573a23360006040518363ffffffff167c0100000000000000000000000000000000000000000000000000000000028152600401610791929190611604565b602060405180830381600087803b1580156107ab57600080fd5b505af11580156107bf573d6000803e3d6000fd5b505050506040513d601f19601f820116820180604052506107e39190810190611427565b506107ed82611065565b507f4d561b7ba398df48461b39a73417dea1c950164d86f8f61c4cd22f880563b9ea8260405161081d91906115e9565b60405180910390a160019050919050565b600042600360003373ffffffffffffffffffffffffffffffffffffffff1673ffffffffffffffffffffffffffffffffffffffff168152602001908152602001600020819055506001905090565b600060028054905060018054905003905090565b60008083141515156108a057600080fd5b8282600a0a85028115156108b057fe5b0490509392505050565b6002818154811015156108c957fe5b9060005260206000209060040201600091509050806000018054600181600116156101000203166002900480601f0160208091040260200160405190810160405280929190818152602001828054600181600116156101000203166002900480156109755780601f1061094a57610100808354040283529160200191610975565b820191906000526020600020905b81548152906001019060200180831161095857829003601f168201915b5050505050908060010154908060020160009054906101000a900473ffffffffffffffffffffffffffffffffffffffff16908060030154905084565b60036020528060005260406000206000915090505481565b6001818154811015156109d857fe5b9060005260206000209060040201600091509050806000018054600181600116156101000203166002900480601f016020809104026020016040519081016040528092919081815260200182805460018160011615610100020316600290048015610a845780601f10610a5957610100808354040283529160200191610a84565b820191906000526020600020905b815481529060010190602001808311610a6757829003601f168201915b5050505050908060010154908060020160009054906101000a900473ffffffffffffffffffffffffffffffffffffffff16908060030154905084565b60006020528060005260406000206000915090505481565b6000600560009054906101000a900473ffffffffffffffffffffffffffffffffffffffff1673ffffffffffffffffffffffffffffffffffffffff16634dfefc4b336040518263ffffffff167c0100000000000000000000000000000000000000000000000000000000028152600401610b5191906115e9565b602060405180830381600087803b158015610b6b57600080fd5b505af1158015610b7f573d6000803e3d6000fd5b505050506040513d601f19601f82011682018060405250610ba39190810190611427565b1515610be4576040517f08c379a0000000000000000000000000000000000000000000000000000000008152600401610bdb906116dd565b60405180910390fd5b670de0b6b3a76400003410158015610c3a575060008060003373ffffffffffffffffffffffffffffffffffffffff1673ffffffffffffffffffffffffffffffffffffffff16815260200190815260200160002054145b1515610c7b576040517f08c379a0000000000000000000000000000000000000000000000000000000008152600401610c72906116bd565b60405180910390fd5b346000803373ffffffffffffffffffffffffffffffffffffffff1673ffffffffffffffffffffffffffffffffffffffff16815260200190815260200160002081905550600560009054906101000a900473ffffffffffffffffffffffffffffffffffffffff1673ffffffffffffffffffffffffffffffffffffffff1663c87573a2336001805490506040518363ffffffff167c0100000000000000000000000000000000000000000000000000000000028152600401610d3c92919061162d565b602060405180830381600087803b158015610d5657600080fd5b505af1158015610d6a573d6000803e3d6000fd5b505050506040513d601f19601f82011682018060405250610d8e9190810190611427565b506001600560009054906101000a900473ffffffffffffffffffffffffffffffffffffffff1673ffffffffffffffffffffffffffffffffffffffff166393a21627336040518263ffffffff167c0100000000000000000000000000000000000000000000000000000000028152600401610e0891906115e9565b600060405180830381600087803b158015610e2257600080fd5b505af1158015610e36573d6000803e3d6000fd5b505050506040513d6000823e3d601f19601f82011682018060405250610e5f9190810190611450565b908060018154018082558091505090600182039060005260206000209060040201600090919290919091506000820151816000019080519060200190610ea6929190611213565b506020820151816001015560408201518160020160006101000a81548173ffffffffffffffffffffffffffffffffffffffff021916908373ffffffffffffffffffffffffffffffffffffffff16021790555060608201518160030155505050600180805490500360046000828254019250508190555042600360003373ffffffffffffffffffffffffffffffffffffffff1673ffffffffffffffffffffffffffffffffffffffff168152602001908152602001600020819055507fb0dbc4b7c9e2902ec1f1cce791e77364039b37854011c66691b63afddbbb85bd3342604051610f9192919061162d565b60405180910390a16001905090565b60006001610fac61087b565b141515610fb857600080fd5b6001600454815481101515610fc957fe5b906000526020600020906004020160020160009054906101000a900473ffffffffffffffffffffffffffffffffffffffff1673ffffffffffffffffffffffffffffffffffffffff166108fc3073ffffffffffffffffffffffffffffffffffffffff16319081150290604051600060405180830381858888f19350505050158015611057573d6000803e3d6000fd5b506001905090565b60045481565b600080600061107261087b565b9150600090505b6001805490508110156111c057600060018281548110151561109757fe5b906000526020600020906004020160020160009054906101000a900473ffffffffffffffffffffffffffffffffffffffff1673ffffffffffffffffffffffffffffffffffffffff161415156111b3576111306000808673ffffffffffffffffffffffffffffffffffffffff1673ffffffffffffffffffffffffffffffffffffffff1681526020019081526020016000205483601261088f565b60008060018481548110151561114257fe5b906000526020600020906004020160020160009054906101000a900473ffffffffffffffffffffffffffffffffffffffff1673ffffffffffffffffffffffffffffffffffffffff1673ffffffffffffffffffffffffffffffffffffffff168152602001908152602001600020819055505b8080600101915050611079565b600192505050919050565b50805460018160011615610100020316600290046000825580601f106111f15750611210565b601f01602090049060005260206000209081019061120f9190611293565b5b50565b828054600181600116156101000203166002900490600052602060002090601f016020900481019282601f1061125457805160ff1916838001178555611282565b82800160010185558215611282579182015b82811115611281578251825591602001919060010190611266565b5b50905061128f9190611293565b5090565b6112b591905b808211156112b1576000816000905550600101611299565b5090565b90565b60006112c482356117b2565b905092915050565b60006112d882516117b2565b905092915050565b60006112ec82516117d2565b905092915050565b600082601f830112151561130757600080fd5b815161131a61131582611745565b611718565b9150808252602083016020830185838301111561133657600080fd5b6113418382846117fa565b50505092915050565b60006080828403121561135c57600080fd5b6113666080611718565b9050600082015167ffffffffffffffff81111561138257600080fd5b61138e848285016112f4565b60008301525060206113a2848285016113ea565b60208301525060406113b6848285016112cc565b60408301525060606113ca848285016113ea565b60608301525092915050565b60006113e282356117de565b905092915050565b60006113f682516117de565b905092915050565b60006020828403121561141057600080fd5b600061141e848285016112b8565b91505092915050565b60006020828403121561143957600080fd5b6000611447848285016112e0565b91505092915050565b60006020828403121561146257600080fd5b600082015167ffffffffffffffff81111561147c57600080fd5b6114888482850161134a565b91505092915050565b6000602082840312156114a357600080fd5b60006114b1848285016113d6565b91505092915050565b6000806000606084860312156114cf57600080fd5b60006114dd868287016113d6565b93505060206114ee868287016113d6565b92505060406114ff868287016113d6565b9150509250925092565b6115128161177c565b82525050565b6115218161179c565b82525050565b611530816117e8565b82525050565b600061154182611771565b8084526115558160208601602086016117fa565b61155e8161182d565b602085010191505092915050565b6000601382527f73656e64206869676865722070656e73696f6e000000000000000000000000006020830152604082019050919050565b6000601482527f706c6179657220646f65736e27742065786973740000000000000000000000006020830152604082019050919050565b6115e3816117a8565b82525050565b60006020820190506115fe6000830184611509565b92915050565b60006040820190506116196000830185611509565b6116266020830184611527565b9392505050565b60006040820190506116426000830185611509565b61164f60208301846115da565b9392505050565b600060208201905061166b6000830184611518565b92915050565b6000608082019050818103600083015261168b8187611536565b905061169a60208301866115da565b6116a76040830185611509565b6116b460608301846115da565b95945050505050565b600060208201905081810360008301526116d68161156c565b9050919050565b600060208201905081810360008301526116f6816115a3565b9050919050565b600060208201905061171260008301846115da565b92915050565b6000604051905081810181811067ffffffffffffffff8211171561173b57600080fd5b8060405250919050565b600067ffffffffffffffff82111561175c57600080fd5b601f19601f8301169050602081019050919050565b600081519050919050565b600073ffffffffffffffffffffffffffffffffffffffff82169050919050565b60008115159050919050565b6000819050919050565b600073ffffffffffffffffffffffffffffffffffffffff82169050919050565b60008115159050919050565b6000819050919050565b60006117f3826117a8565b9050919050565b60005b838110156118185780820151818401526020810190506117fd565b83811115611827576000848401525b50505050565b6000601f19601f83011690509190505600a265627a7a723058200324f85aa304db9c71696546a812e774a6c01cd41021ddd0088cff3b7017e41a6c6578706572696d656e74616cf50037",
  "source": "pragma solidity ^0.4.24;\npragma experimental ABIEncoderV2;\n\ninterface Itontine{\n\n\n    function join() external payable returns(bool);\n    function ping() external returns (bool);\n    function eliminate(address a) external  returns(bool);\n    function claimReward() external returns (bool);\n    event NewActivePlayerEv(address _address ,uint time);\n    event eliminatedPlayerEv(address _addrss);\n}\n\n contract Cplayer{\n\n\n    address public admin;\n    constructor() public {\n        admin=msg.sender;\n    }\n     struct player{\n        string name;\n        uint PhoneNumber;\n        address Paddress;\n        uint id;\n     }\n\n\n    mapping(address=>player) public players;\n\n    function AddPlayer(string _name, uint256 _phonenumber) public returns (bool){\n     players[msg.sender].name=_name;\n     players[msg.sender].Paddress=msg.sender;\n     players[msg.sender].PhoneNumber=_phonenumber;\n     return true;\n        }\n\n\n      modifier onlyadmin(){\n        require (msg.sender==admin);\n        _;\n    }\n\n    function RemovePlayer(address _address) public onlyadmin returns (bool) {\n        delete players[_address];\n        return true;\n    }\n\n    function EditPlayer(string _name, uint256 _phonenumber, address _address,uint256 _id) public returns (bool){\n        players[msg.sender].name=_name;\n        players[msg.sender].PhoneNumber=_phonenumber;\n        players[msg.sender].Paddress =_address;\n        players[msg.sender].id =_id;\n        return true;\n    }\n\n  function EditPlayer(address _address,uint256 _id)public returns (bool){\n        players[_address].id =_id;\n        return true;\n\n    }\n    function findplayer(address _address) public view returns (string,uint,address){\n        return ( players[_address].name, players[_address].PhoneNumber, players[_address].Paddress);\n    }\n\n    function exist(address _address) public view returns (bool){\n             return  (players[_address].Paddress!=0x00);\n    }\n\n    function getplayer(address _adress) public view  returns (player){\n        return players[_adress];\n    }\n }\n\n/*********************************************\n*Ctontine Contract\n*\n*******************************************/\n\ncontract Ctontine is Itontine {\n\n    mapping (address => uint256 ) public Tpension; // You can store structs as the values of your mapping, not as key.\n    Cplayer.player[] public active_players;\n    Cplayer.player[] public eliminated_players;\n    mapping(address=>uint) public ping_time;\n    uint256 public Lindex;\n\n    Cplayer  Tplayer;\n\n     constructor(address _CplayerAddress) public {\n         Tplayer= Cplayer(_CplayerAddress);\n\n    }\n\n     function join() public payable returns(bool){\n        require(Tplayer.exist(msg.sender),\"player doesn't exist\");\n        require(msg.value>=1 ether && Tpension[msg.sender]==0,\"send higher pension\");\n        Tpension[msg.sender]=msg.value;\n        Tplayer.EditPlayer(msg.sender,active_players.length);\n\n        active_players.push(Tplayer.getplayer(msg.sender));\n        Lindex +=(active_players.length-1);\n        ping_time[msg.sender]=now;\n        emit NewActivePlayerEv(msg.sender,now);\n        return true;\n    }\n\n\n    function ping() external  returns(bool) {\n\n    ping_time[msg.sender]=now;\n    return true;\n    }\n\n\n    function eliminate(address PlayerAddress) external  returns(bool){\n\n      require(now> ping_time[PlayerAddress] +1 days );\n      delete Tpension[PlayerAddress];\n      delete active_players[Tplayer.getplayer(PlayerAddress).id];\n      Lindex -= Tplayer.getplayer(PlayerAddress).id;\n      eliminated_players.push(Tplayer.getplayer(PlayerAddress));\n      Tplayer.EditPlayer(msg.sender,0);\n\n      share_pension(PlayerAddress);\n      emit eliminatedPlayerEv(PlayerAddress);\n      return true;\n\n  }\n\n  function share_pension(address user)internal returns (bool){\n    uint256 remainingPlayers=remaining_players();\n    for(uint i=0; i< active_players.length;i++){\n        if (active_players[i].Paddress!=0x00)\n            Tpension[active_players[i].Paddress]=calcul(Tpension[user],remainingPlayers,18);\n\n        }\n            return true;\n  }\n\n  function calcul(uint a, uint b, uint precision) public pure returns ( uint) {\n   require (b!=0);\n\n     return a*(10**(precision))/b;\n\n }\n\n\n  function remaining_players() public view returns (uint256){\n    return (active_players.length-eliminated_players.length);\n  }\n\n \n\nfunction claimReward() external returns (bool){\n            require(remaining_players()==1);\n            active_players[Lindex].Paddress.transfer(address(this).balance);\n            return true;\n}\n\n}\n\n",
  "sourcePath": "/home/user/tontine/contracts/tontine.sol",
  "compiler": {
    "name": "solc",
    "version": "0.4.24+commit.e67f0147.Emscripten.clang"
  },
  "schemaVersion": "2.0.1",
  "updatedAt": "2018-07-26T11:20:37.382Z"
}